{"abi":[{"type":"constructor","inputs":[{"name":"_verifier","type":"address","internalType":"address"}],"stateMutability":"nonpayable"},{"type":"function","name":"addRoot","inputs":[{"name":"root","type":"bytes32","internalType":"bytes32"}],"outputs":[],"stateMutability":"nonpayable"},{"type":"function","name":"admin","inputs":[],"outputs":[{"name":"","type":"address","internalType":"address"}],"stateMutability":"view"},{"type":"function","name":"consumedNullifiers","inputs":[{"name":"","type":"bytes32","internalType":"bytes32"}],"outputs":[{"name":"","type":"bool","internalType":"bool"}],"stateMutability":"view"},{"type":"function","name":"knownRoots","inputs":[{"name":"","type":"bytes32","internalType":"bytes32"}],"outputs":[{"name":"","type":"bool","internalType":"bool"}],"stateMutability":"view"},{"type":"function","name":"revokeRoot","inputs":[{"name":"root","type":"bytes32","internalType":"bytes32"}],"outputs":[],"stateMutability":"nonpayable"},{"type":"function","name":"transferAdmin","inputs":[{"name":"newAdmin","type":"address","internalType":"address"}],"outputs":[],"stateMutability":"nonpayable"},{"type":"function","name":"verifier","inputs":[],"outputs":[{"name":"","type":"address","internalType":"contract IGroth16Verifier"}],"stateMutability":"view"},{"type":"function","name":"verify","inputs":[{"name":"_pA","type":"uint256[2]","internalType":"uint256[2]"},{"name":"_pB","type":"uint256[2][2]","internalType":"uint256[2][2]"},{"name":"_pC","type":"uint256[2]","internalType":"uint256[2]"},{"name":"merkleRoot","type":"uint256","internalType":"uint256"},{"name":"taskHashCommitment","type":"uint256","internalType":"uint256"},{"name":"nullifierHash","type":"uint256","internalType":"uint256"}],"outputs":[{"name":"","type":"bool","internalType":"bool"}],"stateMutability":"nonpayable"},{"type":"function","name":"verifyView","inputs":[{"name":"_pA","type":"uint256[2]","internalType":"uint256[2]"},{"name":"_pB","type":"uint256[2][2]","internalType":"uint256[2][2]"},{"name":"_pC","type":"uint256[2]","internalType":"uint256[2]"},{"name":"merkleRoot","type":"uint256","internalType":"uint256"},{"name":"taskHashCommitment","type":"uint256","internalType":"uint256"},{"name":"nullifierHash","type":"uint256","internalType":"uint256"}],"outputs":[{"name":"","type":"bool","internalType":"bool"}],"stateMutability":"view"},{"type":"event","name":"ProofVerified","inputs":[{"name":"nullifierHash","type":"bytes32","indexed":true,"internalType":"bytes32"},{"name":"taskHashCommitment","type":"bytes32","indexed":true,"internalType":"bytes32"},{"name":"merkleRoot","type":"bytes32","indexed":true,"internalType":"bytes32"}],"anonymous":false},{"type":"event","name":"RootAdded","inputs":[{"name":"root","type":"bytes32","indexed":true,"internalType":"bytes32"}],"anonymous":false},{"type":"event","name":"RootRevoked","inputs":[{"name":"root","type":"bytes32","indexed":true,"internalType":"bytes32"}],"anonymous":false},{"type":"error","name":"InvalidProof","inputs":[]},{"type":"error","name":"NullifierAlreadyConsumed","inputs":[{"name":"nullifier","type":"bytes32","internalType":"bytes32"}]},{"type":"error","name":"UnknownMerkleRoot","inputs":[{"name":"root","type":"bytes32","internalType":"bytes32"}]}],"bytecode":{"object":"0x60a060405234801561001057600080fd5b5060405161080438038061080483398101604081905261002f91610052565b6001600160a01b0316608052600080546001600160a01b03191633179055610082565b60006020828403121561006457600080fd5b81516001600160a01b038116811461007b57600080fd5b9392505050565b60805161075a6100aa6000396000818160c501528181610244015261043a015261075a6000f3fe608060405234801561001057600080fd5b50600436106100935760003560e01c8063b32170ae11610066578063b32170ae14610137578063c631b2ef1461014a578063d59e64611461015d578063ede7b89c14610170578063f851a4401461019357600080fd5b806315c52bb5146100985780632b7ac3f3146100c05780634e73da7d146100ff57806375829def14610122575b600080fd5b6100ab6100a63660046105b3565b6101a6565b60405190151581526020015b60405180910390f35b6100e77f000000000000000000000000000000000000000000000000000000000000000081565b6040516001600160a01b0390911681526020016100b7565b6100ab61010d36600461061f565b60016020526000908152604090205460ff1681565b610135610130366004610638565b610333565b005b6100ab6101453660046105b3565b6103cd565b61013561015836600461061f565b6104c2565b61013561016b36600461061f565b61052c565b6100ab61017e36600461061f565b60026020526000908152604090205460ff1681565b6000546100e7906001600160a01b031681565b600083815260016020526040812054849060ff166101df57604051630db7e42560e21b8152600481018290526024015b60405180910390fd5b600083815260026020526040902054839060ff16156102145760405163350e9ad360e01b8152600481018290526024016101d6565b604080516060810182528781526020810187905280820186905290516308a3cff560e11b81526001600160a01b037f000000000000000000000000000000000000000000000000000000000000000016906311479fea9061027f908d908d908d908790600401610668565b602060405180830381865afa15801561029c573d6000803e3d6000fd5b505050506040513d601f19601f820116820180604052508101906102c091906106d6565b6102dd576040516309bde33960e01b815260040160405180910390fd5b600082815260026020526040808220805460ff19166001179055518891889188917fdd6f813603fe0ca7d964f2bd2e7f800376529208f66abe9943c344c8d7f04ca091a4600193505050505b9695505050505050565b6000546001600160a01b0316331461035d5760405162461bcd60e51b81526004016101d6906106f8565b6001600160a01b0381166103ab5760405162461bcd60e51b81526020600482015260156024820152744b7963476174653a207a65726f206164647265737360581b60448201526064016101d6565b600080546001600160a01b0319166001600160a01b0392909216919091179055565b60008381526001602052604081205460ff166103eb57506000610329565b60008281526002602052604090205460ff161561040a57506000610329565b604080516060810182528581526020810185905280820184905290516308a3cff560e11b81526001600160a01b037f000000000000000000000000000000000000000000000000000000000000000016906311479fea90610475908b908b908b908790600401610668565b602060405180830381865afa158015610492573d6000803e3d6000fd5b505050506040513d601f19601f820116820180604052508101906104b691906106d6565b98975050505050505050565b6000546001600160a01b031633146104ec5760405162461bcd60e51b81526004016101d6906106f8565b600081815260016020526040808220805460ff191690555182917f245ec7e212911051bca7c2588e0f252fffed1482d264848d58e9f3252afbc9de91a250565b6000546001600160a01b031633146105565760405162461bcd60e51b81526004016101d6906106f8565b6000818152600160208190526040808320805460ff19169092179091555182917f388a5f4af784e29fc791e14e90d372b6057e8379d9d5556e843545420c675dea91a250565b80604081018310156105ad57600080fd5b92915050565b60008060008060008061016087890312156105cd57600080fd5b6105d7888861059c565b955060c08701888111156105ea57600080fd5b6040880195506105fa898261059c565b9450506101008701359250610120870135915061014087013590509295509295509295565b60006020828403121561063157600080fd5b5035919050565b60006020828403121561064a57600080fd5b81356001600160a01b038116811461066157600080fd5b9392505050565b61016081016040808784378083018660005b60028110156106975783828437918301919083019060010161067a565b505050808560c08501375061010082018360005b60038110156106ca5781518352602092830192909101906001016106ab565b50505095945050505050565b6000602082840312156106e857600080fd5b8151801515811461066157600080fd5b60208082526012908201527125bcb1a3b0ba329d103737ba1030b236b4b760711b60408201526060019056fea26469706673582212203a7a7a2eddce2ccaaaa6dc3ac61c6055f548c31f9c096ea4a96f2c80f6a3ef5e64736f6c63430008130033","linkReferences":{}},"methodIdentifiers":{"addRoot(bytes32)":"d59e6461","admin()":"f851a440","consumedNullifiers(bytes32)":"ede7b89c","knownRoots(bytes32)":"4e73da7d","revokeRoot(bytes32)":"c631b2ef","transferAdmin(address)":"75829def","verifier()":"2b7ac3f3","verify(uint256[2],uint256[2][2],uint256[2],uint256,uint256,uint256)":"15c52bb5","verifyView(uint256[2],uint256[2][2],uint256[2],uint256,uint256,uint256)":"b32170ae"},"id":1}